{
  "contractName": "ChanChain",
  "abi": [
    {
      "constant": true,
      "inputs": [
        {
          "name": "",
          "type": "uint256"
        }
      ],
      "name": "lastThreads",
      "outputs": [
        {
          "name": "",
          "type": "uint256"
        }
      ],
      "payable": false,
      "stateMutability": "view",
      "type": "function"
    },
    {
      "constant": true,
      "inputs": [],
      "name": "feeNewThread",
      "outputs": [
        {
          "name": "",
          "type": "uint256"
        }
      ],
      "payable": false,
      "stateMutability": "view",
      "type": "function"
    },
    {
      "constant": true,
      "inputs": [
        {
          "name": "",
          "type": "uint256"
        }
      ],
      "name": "replies",
      "outputs": [
        {
          "name": "text",
          "type": "string"
        },
        {
          "name": "ipfsHash",
          "type": "string"
        },
        {
          "name": "replyTo",
          "type": "uint256"
        },
        {
          "name": "nextReply",
          "type": "uint256"
        },
        {
          "name": "timestamp",
          "type": "uint256"
        }
      ],
      "payable": false,
      "stateMutability": "view",
      "type": "function"
    },
    {
      "constant": true,
      "inputs": [],
      "name": "feeReplyThread",
      "outputs": [
        {
          "name": "",
          "type": "uint256"
        }
      ],
      "payable": false,
      "stateMutability": "view",
      "type": "function"
    },
    {
      "constant": true,
      "inputs": [],
      "name": "indexReplies",
      "outputs": [
        {
          "name": "",
          "type": "uint256"
        }
      ],
      "payable": false,
      "stateMutability": "view",
      "type": "function"
    },
    {
      "constant": true,
      "inputs": [],
      "name": "indexLastThreads",
      "outputs": [
        {
          "name": "",
          "type": "uint256"
        }
      ],
      "payable": false,
      "stateMutability": "view",
      "type": "function"
    },
    {
      "constant": true,
      "inputs": [],
      "name": "indexThreads",
      "outputs": [
        {
          "name": "",
          "type": "uint256"
        }
      ],
      "payable": false,
      "stateMutability": "view",
      "type": "function"
    },
    {
      "constant": true,
      "inputs": [
        {
          "name": "",
          "type": "uint256"
        }
      ],
      "name": "threads",
      "outputs": [
        {
          "name": "text",
          "type": "string"
        },
        {
          "name": "ipfsHash",
          "type": "string"
        },
        {
          "name": "indexLastReply",
          "type": "uint256"
        },
        {
          "name": "indexFirstReply",
          "type": "uint256"
        },
        {
          "name": "timestamp",
          "type": "uint256"
        }
      ],
      "payable": false,
      "stateMutability": "view",
      "type": "function"
    },
    {
      "inputs": [
        {
          "name": "_feeNewThread",
          "type": "uint256"
        },
        {
          "name": "_feeReplyThread",
          "type": "uint256"
        }
      ],
      "payable": false,
      "stateMutability": "nonpayable",
      "type": "constructor"
    },
    {
      "anonymous": false,
      "inputs": [
        {
          "indexed": false,
          "name": "threadId",
          "type": "uint256"
        },
        {
          "indexed": false,
          "name": "text",
          "type": "string"
        },
        {
          "indexed": false,
          "name": "ipfsHash",
          "type": "string"
        },
        {
          "indexed": false,
          "name": "timestamp",
          "type": "uint256"
        }
      ],
      "name": "newThreadEvent",
      "type": "event"
    },
    {
      "anonymous": false,
      "inputs": [
        {
          "indexed": false,
          "name": "replyId",
          "type": "uint256"
        },
        {
          "indexed": false,
          "name": "replyTo",
          "type": "uint256"
        },
        {
          "indexed": false,
          "name": "text",
          "type": "string"
        },
        {
          "indexed": false,
          "name": "ipfsHash",
          "type": "string"
        },
        {
          "indexed": false,
          "name": "timestamp",
          "type": "uint256"
        }
      ],
      "name": "newReplyEvent",
      "type": "event"
    },
    {
      "constant": false,
      "inputs": [],
      "name": "toggleContractActive",
      "outputs": [],
      "payable": false,
      "stateMutability": "nonpayable",
      "type": "function"
    },
    {
      "constant": false,
      "inputs": [
        {
          "name": "_feeNewThread",
          "type": "uint256"
        },
        {
          "name": "_feeReplyThread",
          "type": "uint256"
        }
      ],
      "name": "setFees",
      "outputs": [],
      "payable": false,
      "stateMutability": "nonpayable",
      "type": "function"
    },
    {
      "constant": false,
      "inputs": [
        {
          "name": "_amount",
          "type": "uint256"
        }
      ],
      "name": "withdraw",
      "outputs": [],
      "payable": false,
      "stateMutability": "nonpayable",
      "type": "function"
    },
    {
      "constant": false,
      "inputs": [
        {
          "name": "_text",
          "type": "string"
        },
        {
          "name": "_ipfsHash",
          "type": "string"
        }
      ],
      "name": "createThread",
      "outputs": [],
      "payable": true,
      "stateMutability": "payable",
      "type": "function"
    },
    {
      "constant": false,
      "inputs": [
        {
          "name": "_replyTo",
          "type": "uint256"
        },
        {
          "name": "_text",
          "type": "string"
        },
        {
          "name": "_ipfsHash",
          "type": "string"
        }
      ],
      "name": "replyThread",
      "outputs": [],
      "payable": true,
      "stateMutability": "payable",
      "type": "function"
    }
  ],
  "bytecode": "0x608060405260008060146101000a81548160ff02191690831515021790555060016004556001600655600060275534801561003957600080fd5b5060405160408061118d8339810180604052810190808051906020019092919080519060200190929190505050336000806101000a81548173ffffffffffffffffffffffffffffffffffffffff021916908373ffffffffffffffffffffffffffffffffffffffff160217905550816001819055508060028190555050506110c8806100c56000396000f3006080604052600436106100c5576000357c0100000000000000000000000000000000000000000000000000000000900463ffffffff1680630b78f9c0146100ca5780631385d24c1461010157806317075992146101185780632e1a7d4d1461015957806358c0bde0146101865780635c7c366d146101b15780637cdcc514146102d85780638783d40714610384578063c37d8a7e146103af578063c3c6e202146103da578063cb1650b414610405578063d9a7556f146104a7578063f552b2ba146104d2575b600080fd5b3480156100d657600080fd5b506100ff60048036038101908080359060200190929190803590602001909291905050506105f9565b005b34801561010d57600080fd5b50610116610666565b005b34801561012457600080fd5b50610143600480360381019080803590602001909291905050506106ed565b6040518082815260200191505060405180910390f35b34801561016557600080fd5b5061018460048036038101908080359060200190929190505050610707565b005b34801561019257600080fd5b5061019b610794565b6040518082815260200191505060405180910390f35b3480156101bd57600080fd5b506101dc6004803603810190808035906020019092919050505061079a565b604051808060200180602001868152602001858152602001848152602001838103835288818151815260200191508051906020019080838360005b83811015610232578082015181840152602081019050610217565b50505050905090810190601f16801561025f5780820380516001836020036101000a031916815260200191505b50838103825287818151815260200191508051906020019080838360005b8381101561029857808201518184015260208101905061027d565b50505050905090810190601f1680156102c55780820380516001836020036101000a031916815260200191505b5097505050505050505060405180910390f35b61038260048036038101908080359060200190929190803590602001908201803590602001908080601f0160208091040260200160405190810160405280939291908181526020018383808284378201915050505050509192919290803590602001908201803590602001908080601f0160208091040260200160405190810160405280939291908181526020018383808284378201915050505050509192919290505050610900565b005b34801561039057600080fd5b50610399610c4c565b6040518082815260200191505060405180910390f35b3480156103bb57600080fd5b506103c4610c52565b6040518082815260200191505060405180910390f35b3480156103e657600080fd5b506103ef610c58565b6040518082815260200191505060405180910390f35b6104a5600480360381019080803590602001908201803590602001908080601f0160208091040260200160405190810160405280939291908181526020018383808284378201915050505050509192919290803590602001908201803590602001908080601f0160208091040260200160405190810160405280939291908181526020018383808284378201915050505050509192919290505050610c5e565b005b3480156104b357600080fd5b506104bc610e8b565b6040518082815260200191505060405180910390f35b3480156104de57600080fd5b506104fd60048036038101908080359060200190929190505050610e91565b604051808060200180602001868152602001858152602001848152602001838103835288818151815260200191508051906020019080838360005b83811015610553578082015181840152602081019050610538565b50505050905090810190601f1680156105805780820380516001836020036101000a031916815260200191505b50838103825287818151815260200191508051906020019080838360005b838110156105b957808201518184015260208101905061059e565b50505050905090810190601f1680156105e65780820380516001836020036101000a031916815260200191505b5097505050505050505060405180910390f35b6000809054906101000a900473ffffffffffffffffffffffffffffffffffffffff1673ffffffffffffffffffffffffffffffffffffffff163373ffffffffffffffffffffffffffffffffffffffff1614151561065457600080fd5b81600181905550806002819055505050565b6000809054906101000a900473ffffffffffffffffffffffffffffffffffffffff1673ffffffffffffffffffffffffffffffffffffffff163373ffffffffffffffffffffffffffffffffffffffff161415156106c157600080fd5b600060149054906101000a900460ff1615600060146101000a81548160ff021916908315150217905550565b6007816020811015156106fc57fe5b016000915090505481565b60001515600060149054906101000a900460ff16151514151561072957600080fd5b6000809054906101000a900473ffffffffffffffffffffffffffffffffffffffff1673ffffffffffffffffffffffffffffffffffffffff166108fc829081150290604051600060405180830381858888f19350505050158015610790573d6000803e3d6000fd5b5050565b60015481565b6005602052806000526040600020600091509050806000018054600181600116156101000203166002900480601f0160208091040260200160405190810160405280929190818152602001828054600181600116156101000203166002900480156108465780601f1061081b57610100808354040283529160200191610846565b820191906000526020600020905b81548152906001019060200180831161082957829003601f168201915b505050505090806001018054600181600116156101000203166002900480601f0160208091040260200160405190810160405280929190818152602001828054600181600116156101000203166002900480156108e45780601f106108b9576101008083540402835291602001916108e4565b820191906000526020600020905b8154815290600101906020018083116108c757829003601f168201915b5050505050908060020154908060030154908060040154905085565b6000600254341015151561091357600080fd5b60001515600060149054906101000a900460ff16151514151561093557600080fd5b600454841080156109465750600084115b151561095157600080fd5b60a060405190810160405280848152602001838152602001858152602001600081526020014281525060056000600654815260200190815260200160002060008201518160000190805190602001906109ab929190610ff7565b5060208201518160010190805190602001906109c8929190610ff7565b50604082015181600201556060820151816003015560808201518160040155905050600060036000868152602001908152602001600020600301541415610a485760065460036000868152602001908152602001600020600301819055506006546003600086815260200190815260200160002060020181905550610a99565b60065460056000600360008881526020019081526020016000206002015481526020019081526020016000206003018190555060065460036000868152602001908152602001600020600201819055505b600090505b60208160ff161015610b12578360078260ff16602081101515610abd57fe5b01541415610aca57610b12565b601f8160ff161415610b0557836007602754602081101515610ae857fe5b01819055506020801515610af857fe5b6001602754086027819055505b8080600101915050610a9e565b7f0a10376fec2af3cfd7b84cf2d443bc3479c71cc96b6523d20fc876f4cdce745160065485858542604051808681526020018581526020018060200180602001848152602001838103835286818151815260200191508051906020019080838360005b83811015610b90578082015181840152602081019050610b75565b50505050905090810190601f168015610bbd5780820380516001836020036101000a031916815260200191505b50838103825285818151815260200191508051906020019080838360005b83811015610bf6578082015181840152602081019050610bdb565b50505050905090810190601f168015610c235780820380516001836020036101000a031916815260200191505b5097505050505050505060405180910390a1600160066000828254019250508190555050505050565b60025481565b60065481565b60275481565b6001543410151515610c6f57600080fd5b60001515600060149054906101000a900460ff161515141515610c9157600080fd5b60a0604051908101604052808381526020018281526020016000815260200160008152602001428152506003600060045481526020019081526020016000206000820151816000019080519060200190610cec929190610ff7565b506020820151816001019080519060200190610d09929190610ff7565b506040820151816002015560608201518160030155608082015181600401559050506004546007602754602081101515610d3f57fe5b01819055506020801515610d4f57fe5b6001602754086027819055507f19aec6a975c3906841d0bc9754286c99d208604b3e71f08a017e331f45b9a313600454838342604051808581526020018060200180602001848152602001838103835286818151815260200191508051906020019080838360005b83811015610dd2578082015181840152602081019050610db7565b50505050905090810190601f168015610dff5780820380516001836020036101000a031916815260200191505b50838103825285818151815260200191508051906020019080838360005b83811015610e38578082015181840152602081019050610e1d565b50505050905090810190601f168015610e655780820380516001836020036101000a031916815260200191505b50965050505050505060405180910390a160016004600082825401925050819055505050565b60045481565b6003602052806000526040600020600091509050806000018054600181600116156101000203166002900480601f016020809104026020016040519081016040528092919081815260200182805460018160011615610100020316600290048015610f3d5780601f10610f1257610100808354040283529160200191610f3d565b820191906000526020600020905b815481529060010190602001808311610f2057829003601f168201915b505050505090806001018054600181600116156101000203166002900480601f016020809104026020016040519081016040528092919081815260200182805460018160011615610100020316600290048015610fdb5780601f10610fb057610100808354040283529160200191610fdb565b820191906000526020600020905b815481529060010190602001808311610fbe57829003601f168201915b5050505050908060020154908060030154908060040154905085565b828054600181600116156101000203166002900490600052602060002090601f016020900481019282601f1061103857805160ff1916838001178555611066565b82800160010185558215611066579182015b8281111561106557825182559160200191906001019061104a565b5b5090506110739190611077565b5090565b61109991905b8082111561109557600081600090555060010161107d565b5090565b905600a165627a7a723058205b7fd011e1ebcfe7a5b4f3ac38dd001871712fe868cdbca93a245ea2c205bfb90029",
  "source": "pragma solidity 0.4.24;\r\n\r\n/// @title A 4chan inspired simple imageboard for Ethereum\r\n/// @author Anant Upadhyay\r\n/// @notice A simple imageboard tracking the last 32 active threads\r\ncontract ChanChain {\r\n\r\n\t// For setting owner\r\n\taddress private owner;\r\n\r\n\t//Circuit Breaker for pausing the contract\r\n\tbool private isPaused = false;\r\n\r\n\t// Owner can set fees\r\n\tuint256 public feeNewThread;\r\n\tuint256 public feeReplyThread;\r\n\r\n\t// Thread Structure\r\n\tstruct thread {\r\n\t\tstring text;\r\n\t\tstring ipfsHash;\r\n\r\n\t\tuint256 indexLastReply;\r\n\t\tuint256 indexFirstReply;\r\n\r\n\t\tuint256 timestamp;\r\n\t}\r\n\r\n\t//Keeping track of threads\r\n\tmapping (uint256 => thread) public threads;\r\n\tuint256 public indexThreads = 1;\r\n\r\n\t// Reply structure\r\n\tstruct reply {\r\n\t\tstring text;\r\n\t\tstring ipfsHash;\r\n\r\n\t\tuint256 replyTo;\r\n\t\tuint256 nextReply;\r\n\r\n\t\tuint256 timestamp;\r\n\t}\r\n\r\n\t//Keeping track of replies\r\n\tmapping (uint256 => reply) public replies;\r\n\tuint256 public indexReplies = 1;\r\n\r\n\t// Keeping track of last 32 active threads\r\n\tuint256[32] public lastThreads;\r\n\t// Keeping track of index of the thread that was added last in lastThreads\r\n\tuint256 public indexLastThreads = 0;\r\n\r\n\t//\r\n\t// Events\r\n\t//\r\n\r\n\tevent newThreadEvent(uint256 threadId, string text, string ipfsHash, uint256 timestamp);\r\n\tevent newReplyEvent(uint256 replyId, uint256 replyTo, string text, string ipfsHash, uint256 timestamp);\r\n\r\n\t//\r\n\t// Modifiers\r\n\t//\r\n\r\n/// @dev Create a modifer that checks if the msg.sender is the owner of the contract\r\n\t  modifier onlyOwner() {\r\n\t    require (msg.sender == owner);\r\n\t    _;\r\n\t  }\r\n\r\n/// @dev Create a modifer that checks if the msg.value is greater than the fee required to create thread\r\n\t\tmodifier payFeeNewThread() {\r\n\t\t\trequire(msg.value >= feeNewThread);\r\n\t\t\t_;\r\n\t\t}\r\n/// @dev Create a modifer that checks if the msg.value is greater than the fee required to reply\r\n\t\tmodifier payFeeReplyThread() {\r\n\t\t\trequire(msg.value >= feeReplyThread);\r\n\t\t\t_;\r\n\t\t}\r\n\r\n/// @dev Create a modifer that checks if the contract is paused\r\n\t\tmodifier isHalted() {\r\n\t\t\trequire(isPaused == false);\r\n\t\t\t_;\r\n\t\t}\r\n\r\n\t//\r\n\t// Constructor\r\n\t//\r\n\r\n/// @dev Set initial fee while deploying the contract\r\n/// @param _feeNewThread Fee required to create new thread (uint256), _feeReplyThread Fee required for replying to a thread (uint256)\r\n\tconstructor(uint256 _feeNewThread, uint256 _feeReplyThread) public {\r\n\t\towner = msg.sender;\r\n\t\tfeeNewThread = _feeNewThread;\r\n\t\tfeeReplyThread = _feeReplyThread;\r\n\t}\r\n\r\n/// @notice Owner can pause the contract\r\n/// @dev Owner can call this function to toggle contract isPaused state\r\n\tfunction toggleContractActive() onlyOwner public\r\n\t{\r\n\t    isPaused = !isPaused;\r\n\t}\r\n\r\n/// @notice Owner can reset fee in the future\r\n/// @dev Sets feeNewThread and feeReplyThread\r\n/// @param _feeNewThread Fee required to create new thread (uint256), _feeReplyThread Fee required for replying to a thread (uint256)\r\n\tfunction setFees(uint256 _feeNewThread, uint256 _feeReplyThread) public onlyOwner {\r\n\t\tfeeNewThread = _feeNewThread;\r\n\t\tfeeReplyThread = _feeReplyThread;\r\n\t}\r\n\r\n\t// To get the money back\r\n/// @notice Owner can withdraw fee from contract\r\n/// @dev Transfers all ether in contract to owner\r\n/// @param _amount Amount to withdraw from contract (uint256)\r\n\tfunction withdraw(uint256 _amount) public isHalted {\r\n\t\towner.transfer(_amount);\r\n\t}\r\n\r\n\t// Create a Thread\r\n/// @notice Create a new thread if the fees is paid\r\n/// @dev Creates a new thread, updates last active thread index\r\n/// @param _text Text content for the thread post (string), _ipfsHash IPFS hash of image (string)\r\n\tfunction createThread(string _text, string _ipfsHash)\r\n\tpayable\r\n\tpublic\r\n\tpayFeeNewThread\r\n\tisHalted {\r\n\t\t// Calculate a new thread ID and post\r\n\t\tthreads[indexThreads] = thread(_text, _ipfsHash, 0, 0, now);\r\n\t\t// Add it to our last active threads array\r\n\t\tlastThreads[indexLastThreads] = indexThreads;\r\n\t\t// Increment index\r\n\t\tindexLastThreads = addmod(indexLastThreads, 1, 32);\r\n\t\t// Fire Event log\r\n\t\temit newThreadEvent(indexThreads, _text, _ipfsHash, now);\r\n\t\t// Increment index for next thread\r\n\t\tindexThreads += 1;\r\n\t}\r\n\r\n\t// Reply to a thread\r\n/// @notice Reply to a thread if the fees is paid\r\n/// @dev Replies to a thread after making sure it exists, updates last active thread index\r\n/// @param _replyTo Index of the thread associated with this reply, _text Text content for the thread post (string), _ipfsHash IPFS hash of image (string)\r\n\tfunction replyThread(uint256 _replyTo, string _text, string _ipfsHash)\r\n\tpayable\r\n\tpublic\r\n\tpayFeeReplyThread\r\n\tisHalted {\r\n\t\t// Make sure you can't reply to an nonexistant thread\r\n\t\trequire(_replyTo < indexThreads && _replyTo > 0);\r\n\t\t// Post the reply with nextReply = 0 as this is the last message in the chain\r\n\t\treplies[indexReplies] = reply(_text, _ipfsHash, _replyTo, 0, now);\r\n\t\t// Update the thread\r\n\t\t// We're first to reply\r\n\t\tif(threads[_replyTo].indexFirstReply == 0){\r\n\t\t\tthreads[_replyTo].indexFirstReply = indexReplies;\r\n\t\t\tthreads[_replyTo].indexLastReply = indexReplies;\r\n\t\t}\r\n\t\t// We're not first to reply so we update the previous reply as well\r\n\t\telse {\r\n\t\t\treplies[threads[_replyTo].indexLastReply].nextReply = indexReplies;\r\n\t\t\tthreads[_replyTo].indexLastReply = indexReplies;\r\n\t\t}\r\n\r\n\t\t// Update the last active threads\r\n\t\tfor (uint8 i = 0; i < 32; i++) {\r\n\t\t\tif(lastThreads[i] == _replyTo) {\r\n\t\t\t\t// Already in the list\r\n\t\t\t\tbreak;\r\n\t\t\t}\r\n\t\t\tif(i == 31) {\r\n\t\t\t\tlastThreads[indexLastThreads] = _replyTo;\r\n\t\t\t\tindexLastThreads = addmod(indexLastThreads, 1, 32);\r\n\t\t\t}\r\n\t\t}\r\n\t\t// Fire Event log\r\n\t\temit newReplyEvent(indexReplies, _replyTo, _text, _ipfsHash, now);\r\n\t\t// Increment index for next reply\r\n\t\tindexReplies += 1;\r\n\t}\r\n}\r\n",
  "sourcePath": "C:\\Solidity\\Consensys\\Final Project\\ChanChain\\contracts\\ChanChain.sol",
  "compiler": {
    "name": "solc",
    "version": "0.4.24+commit.e67f0147.Emscripten.clang"
  },
  "schemaVersion": "2.0.1",
  "updatedAt": "2018-08-18T13:55:52.434Z"
}