{
  "contractName": "ChanChain",
  "abi": [
    {
      "constant": true,
      "inputs": [
        {
          "name": "",
          "type": "uint256"
        }
      ],
      "name": "lastThreads",
      "outputs": [
        {
          "name": "",
          "type": "uint256"
        }
      ],
      "payable": false,
      "stateMutability": "view",
      "type": "function"
    },
    {
      "constant": true,
      "inputs": [],
      "name": "feeNewThread",
      "outputs": [
        {
          "name": "",
          "type": "uint256"
        }
      ],
      "payable": false,
      "stateMutability": "view",
      "type": "function"
    },
    {
      "constant": true,
      "inputs": [
        {
          "name": "",
          "type": "uint256"
        }
      ],
      "name": "replies",
      "outputs": [
        {
          "name": "text",
          "type": "string"
        },
        {
          "name": "ipfsHash",
          "type": "string"
        },
        {
          "name": "replyTo",
          "type": "uint256"
        },
        {
          "name": "nextReply",
          "type": "uint256"
        },
        {
          "name": "timestamp",
          "type": "uint256"
        }
      ],
      "payable": false,
      "stateMutability": "view",
      "type": "function"
    },
    {
      "constant": true,
      "inputs": [],
      "name": "feeReplyThread",
      "outputs": [
        {
          "name": "",
          "type": "uint256"
        }
      ],
      "payable": false,
      "stateMutability": "view",
      "type": "function"
    },
    {
      "constant": true,
      "inputs": [],
      "name": "isPaused",
      "outputs": [
        {
          "name": "",
          "type": "bool"
        }
      ],
      "payable": false,
      "stateMutability": "view",
      "type": "function"
    },
    {
      "constant": true,
      "inputs": [],
      "name": "indexReplies",
      "outputs": [
        {
          "name": "",
          "type": "uint256"
        }
      ],
      "payable": false,
      "stateMutability": "view",
      "type": "function"
    },
    {
      "constant": true,
      "inputs": [],
      "name": "indexLastThreads",
      "outputs": [
        {
          "name": "",
          "type": "uint256"
        }
      ],
      "payable": false,
      "stateMutability": "view",
      "type": "function"
    },
    {
      "constant": true,
      "inputs": [],
      "name": "indexThreads",
      "outputs": [
        {
          "name": "",
          "type": "uint256"
        }
      ],
      "payable": false,
      "stateMutability": "view",
      "type": "function"
    },
    {
      "constant": true,
      "inputs": [
        {
          "name": "",
          "type": "uint256"
        }
      ],
      "name": "threads",
      "outputs": [
        {
          "name": "text",
          "type": "string"
        },
        {
          "name": "ipfsHash",
          "type": "string"
        },
        {
          "name": "indexLastReply",
          "type": "uint256"
        },
        {
          "name": "indexFirstReply",
          "type": "uint256"
        },
        {
          "name": "timestamp",
          "type": "uint256"
        }
      ],
      "payable": false,
      "stateMutability": "view",
      "type": "function"
    },
    {
      "inputs": [
        {
          "name": "_feeNewThread",
          "type": "uint256"
        },
        {
          "name": "_feeReplyThread",
          "type": "uint256"
        }
      ],
      "payable": false,
      "stateMutability": "nonpayable",
      "type": "constructor"
    },
    {
      "anonymous": false,
      "inputs": [
        {
          "indexed": false,
          "name": "threadId",
          "type": "uint256"
        },
        {
          "indexed": false,
          "name": "text",
          "type": "string"
        },
        {
          "indexed": false,
          "name": "ipfsHash",
          "type": "string"
        },
        {
          "indexed": false,
          "name": "timestamp",
          "type": "uint256"
        }
      ],
      "name": "newThreadEvent",
      "type": "event"
    },
    {
      "anonymous": false,
      "inputs": [
        {
          "indexed": false,
          "name": "replyId",
          "type": "uint256"
        },
        {
          "indexed": false,
          "name": "replyTo",
          "type": "uint256"
        },
        {
          "indexed": false,
          "name": "text",
          "type": "string"
        },
        {
          "indexed": false,
          "name": "ipfsHash",
          "type": "string"
        },
        {
          "indexed": false,
          "name": "timestamp",
          "type": "uint256"
        }
      ],
      "name": "newReplyEvent",
      "type": "event"
    },
    {
      "constant": false,
      "inputs": [],
      "name": "toggleContractActive",
      "outputs": [
        {
          "name": "",
          "type": "bool"
        }
      ],
      "payable": false,
      "stateMutability": "nonpayable",
      "type": "function"
    },
    {
      "constant": false,
      "inputs": [],
      "name": "isKill",
      "outputs": [],
      "payable": false,
      "stateMutability": "nonpayable",
      "type": "function"
    },
    {
      "constant": false,
      "inputs": [
        {
          "name": "_feeNewThread",
          "type": "uint256"
        },
        {
          "name": "_feeReplyThread",
          "type": "uint256"
        }
      ],
      "name": "setFees",
      "outputs": [],
      "payable": false,
      "stateMutability": "nonpayable",
      "type": "function"
    },
    {
      "constant": false,
      "inputs": [
        {
          "name": "_amount",
          "type": "uint256"
        }
      ],
      "name": "withdraw",
      "outputs": [],
      "payable": false,
      "stateMutability": "nonpayable",
      "type": "function"
    },
    {
      "constant": false,
      "inputs": [
        {
          "name": "_text",
          "type": "string"
        },
        {
          "name": "_ipfsHash",
          "type": "string"
        }
      ],
      "name": "createThread",
      "outputs": [],
      "payable": true,
      "stateMutability": "payable",
      "type": "function"
    },
    {
      "constant": false,
      "inputs": [
        {
          "name": "_replyTo",
          "type": "uint256"
        },
        {
          "name": "_text",
          "type": "string"
        },
        {
          "name": "_ipfsHash",
          "type": "string"
        }
      ],
      "name": "replyThread",
      "outputs": [],
      "payable": true,
      "stateMutability": "payable",
      "type": "function"
    }
  ],
  "bytecode": "0x608060405260008060146101000a81548160ff02191690831515021790555060016004556001600655600060275534801561003957600080fd5b506040516040806113198339810180604052810190808051906020019092919080519060200190929190505050336000806101000a81548173ffffffffffffffffffffffffffffffffffffffff021916908373ffffffffffffffffffffffffffffffffffffffff16021790555081600181905550806002819055505050611254806100c56000396000f3006080604052600436106100db576000357c0100000000000000000000000000000000000000000000000000000000900463ffffffff1680630b78f9c0146100e05780631385d24c1461011757806317075992146101465780632e1a7d4d1461018757806358c0bde0146101b45780635c7c366d146101df5780637cdcc514146103065780638783d407146103b2578063b187bd26146103dd578063c37d8a7e1461040c578063c3c6e20214610437578063c7ef47d714610462578063cb1650b414610479578063d9a7556f1461051b578063f552b2ba14610546575b600080fd5b3480156100ec57600080fd5b50610115600480360381019080803590602001909291908035906020019092919050505061066d565b005b34801561012357600080fd5b5061012c6106da565b604051808215151515815260200191505060405180910390f35b34801561015257600080fd5b5061017160048036038101908080359060200190929190505050610776565b6040518082815260200191505060405180910390f35b34801561019357600080fd5b506101b260048036038101908080359060200190929190505050610790565b005b3480156101c057600080fd5b506101c9610878565b6040518082815260200191505060405180910390f35b3480156101eb57600080fd5b5061020a6004803603810190808035906020019092919050505061087e565b604051808060200180602001868152602001858152602001848152602001838103835288818151815260200191508051906020019080838360005b83811015610260578082015181840152602081019050610245565b50505050905090810190601f16801561028d5780820380516001836020036101000a031916815260200191505b50838103825287818151815260200191508051906020019080838360005b838110156102c65780820151818401526020810190506102ab565b50505050905090810190601f1680156102f35780820380516001836020036101000a031916815260200191505b5097505050505050505060405180910390f35b6103b060048036038101908080359060200190929190803590602001908201803590602001908080601f0160208091040260200160405190810160405280939291908181526020018383808284378201915050505050509192919290803590602001908201803590602001908080601f01602080910402602001604051908101604052809392919081815260200183838082843782019150505050505091929192905050506109e4565b005b3480156103be57600080fd5b506103c7610d30565b6040518082815260200191505060405180910390f35b3480156103e957600080fd5b506103f2610d36565b604051808215151515815260200191505060405180910390f35b34801561041857600080fd5b50610421610d49565b6040518082815260200191505060405180910390f35b34801561044357600080fd5b5061044c610d4f565b6040518082815260200191505060405180910390f35b34801561046e57600080fd5b50610477610d55565b005b610519600480360381019080803590602001908201803590602001908080601f0160208091040260200160405190810160405280939291908181526020018383808284378201915050505050509192919290803590602001908201803590602001908080601f0160208091040260200160405190810160405280939291908181526020018383808284378201915050505050509192919290505050610dea565b005b34801561052757600080fd5b50610530611017565b6040518082815260200191505060405180910390f35b34801561055257600080fd5b506105716004803603810190808035906020019092919050505061101d565b604051808060200180602001868152602001858152602001848152602001838103835288818151815260200191508051906020019080838360005b838110156105c75780820151818401526020810190506105ac565b50505050905090810190601f1680156105f45780820380516001836020036101000a031916815260200191505b50838103825287818151815260200191508051906020019080838360005b8381101561062d578082015181840152602081019050610612565b50505050905090810190601f16801561065a5780820380516001836020036101000a031916815260200191505b5097505050505050505060405180910390f35b6000809054906101000a900473ffffffffffffffffffffffffffffffffffffffff1673ffffffffffffffffffffffffffffffffffffffff163373ffffffffffffffffffffffffffffffffffffffff161415156106c857600080fd5b81600181905550806002819055505050565b60008060009054906101000a900473ffffffffffffffffffffffffffffffffffffffff1673ffffffffffffffffffffffffffffffffffffffff163373ffffffffffffffffffffffffffffffffffffffff1614151561073757600080fd5b600060149054906101000a900460ff1615600060146101000a81548160ff021916908315150217905550600060149054906101000a900460ff16905090565b60078160208110151561078557fe5b016000915090505481565b6000809054906101000a900473ffffffffffffffffffffffffffffffffffffffff1673ffffffffffffffffffffffffffffffffffffffff163373ffffffffffffffffffffffffffffffffffffffff161415156107eb57600080fd5b60001515600060149054906101000a900460ff16151514151561080d57600080fd5b6000809054906101000a900473ffffffffffffffffffffffffffffffffffffffff1673ffffffffffffffffffffffffffffffffffffffff166108fc829081150290604051600060405180830381858888f19350505050158015610874573d6000803e3d6000fd5b5050565b60015481565b6005602052806000526040600020600091509050806000018054600181600116156101000203166002900480601f01602080910402602001604051908101604052809291908181526020018280546001816001161561010002031660029004801561092a5780601f106108ff5761010080835404028352916020019161092a565b820191906000526020600020905b81548152906001019060200180831161090d57829003601f168201915b505050505090806001018054600181600116156101000203166002900480601f0160208091040260200160405190810160405280929190818152602001828054600181600116156101000203166002900480156109c85780601f1061099d576101008083540402835291602001916109c8565b820191906000526020600020905b8154815290600101906020018083116109ab57829003601f168201915b5050505050908060020154908060030154908060040154905085565b600060025434101515156109f757600080fd5b60001515600060149054906101000a900460ff161515141515610a1957600080fd5b60045484108015610a2a5750600084115b1515610a3557600080fd5b60a06040519081016040528084815260200183815260200185815260200160008152602001428152506005600060065481526020019081526020016000206000820151816000019080519060200190610a8f929190611183565b506020820151816001019080519060200190610aac929190611183565b50604082015181600201556060820151816003015560808201518160040155905050600060036000868152602001908152602001600020600301541415610b2c5760065460036000868152602001908152602001600020600301819055506006546003600086815260200190815260200160002060020181905550610b7d565b60065460056000600360008881526020019081526020016000206002015481526020019081526020016000206003018190555060065460036000868152602001908152602001600020600201819055505b600090505b60208160ff161015610bf6578360078260ff16602081101515610ba157fe5b01541415610bae57610bf6565b601f8160ff161415610be957836007602754602081101515610bcc57fe5b01819055506020801515610bdc57fe5b6001602754086027819055505b8080600101915050610b82565b7f0a10376fec2af3cfd7b84cf2d443bc3479c71cc96b6523d20fc876f4cdce745160065485858542604051808681526020018581526020018060200180602001848152602001838103835286818151815260200191508051906020019080838360005b83811015610c74578082015181840152602081019050610c59565b50505050905090810190601f168015610ca15780820380516001836020036101000a031916815260200191505b50838103825285818151815260200191508051906020019080838360005b83811015610cda578082015181840152602081019050610cbf565b50505050905090810190601f168015610d075780820380516001836020036101000a031916815260200191505b5097505050505050505060405180910390a1600160066000828254019250508190555050505050565b60025481565b600060149054906101000a900460ff1681565b60065481565b60275481565b6000809054906101000a900473ffffffffffffffffffffffffffffffffffffffff1673ffffffffffffffffffffffffffffffffffffffff163373ffffffffffffffffffffffffffffffffffffffff16141515610db057600080fd5b6000809054906101000a900473ffffffffffffffffffffffffffffffffffffffff1673ffffffffffffffffffffffffffffffffffffffff16ff5b6001543410151515610dfb57600080fd5b60001515600060149054906101000a900460ff161515141515610e1d57600080fd5b60a0604051908101604052808381526020018281526020016000815260200160008152602001428152506003600060045481526020019081526020016000206000820151816000019080519060200190610e78929190611183565b506020820151816001019080519060200190610e95929190611183565b506040820151816002015560608201518160030155608082015181600401559050506004546007602754602081101515610ecb57fe5b01819055506020801515610edb57fe5b6001602754086027819055507f19aec6a975c3906841d0bc9754286c99d208604b3e71f08a017e331f45b9a313600454838342604051808581526020018060200180602001848152602001838103835286818151815260200191508051906020019080838360005b83811015610f5e578082015181840152602081019050610f43565b50505050905090810190601f168015610f8b5780820380516001836020036101000a031916815260200191505b50838103825285818151815260200191508051906020019080838360005b83811015610fc4578082015181840152602081019050610fa9565b50505050905090810190601f168015610ff15780820380516001836020036101000a031916815260200191505b50965050505050505060405180910390a160016004600082825401925050819055505050565b60045481565b6003602052806000526040600020600091509050806000018054600181600116156101000203166002900480601f0160208091040260200160405190810160405280929190818152602001828054600181600116156101000203166002900480156110c95780601f1061109e576101008083540402835291602001916110c9565b820191906000526020600020905b8154815290600101906020018083116110ac57829003601f168201915b505050505090806001018054600181600116156101000203166002900480601f0160208091040260200160405190810160405280929190818152602001828054600181600116156101000203166002900480156111675780601f1061113c57610100808354040283529160200191611167565b820191906000526020600020905b81548152906001019060200180831161114a57829003601f168201915b5050505050908060020154908060030154908060040154905085565b828054600181600116156101000203166002900490600052602060002090601f016020900481019282601f106111c457805160ff19168380011785556111f2565b828001600101855582156111f2579182015b828111156111f15782518255916020019190600101906111d6565b5b5090506111ff9190611203565b5090565b61122591905b80821115611221576000816000905550600101611209565b5090565b905600a165627a7a7230582068470ebf629ebf0a2be1c4ea5c4e1bdd848ba9602529c6c15253d0d418cdbe3e0029",
  "source": "pragma solidity 0.4.24;\r\n\r\n/// @title A 4chan inspired simple imageboard for Ethereum\r\n/// @author Anant Upadhyay\r\n/// @notice A simple imageboard tracking the last 32 active threads\r\ncontract ChanChain {\r\n\r\n\t// For setting owner\r\n\taddress private owner;\r\n\r\n\t//Circuit Breaker for pausing the contract\r\n\tbool public isPaused = false;\r\n\r\n\t// Owner can set fees\r\n\tuint256 public feeNewThread;\r\n\tuint256 public feeReplyThread;\r\n\r\n\t// Thread Structure\r\n\tstruct thread {\r\n\t\tstring text;\r\n\t\tstring ipfsHash;\r\n\r\n\t\tuint256 indexLastReply;\r\n\t\tuint256 indexFirstReply;\r\n\r\n\t\tuint256 timestamp;\r\n\t}\r\n\r\n\t//Keeping track of threads\r\n\tmapping (uint256 => thread) public threads;\r\n\tuint256 public indexThreads = 1;\r\n\r\n\t// Reply structure\r\n\tstruct reply {\r\n\t\tstring text;\r\n\t\tstring ipfsHash;\r\n\r\n\t\tuint256 replyTo;\r\n\t\tuint256 nextReply;\r\n\r\n\t\tuint256 timestamp;\r\n\t}\r\n\r\n\t//Keeping track of replies\r\n\tmapping (uint256 => reply) public replies;\r\n\tuint256 public indexReplies = 1;\r\n\r\n\t// Keeping track of last 32 active threads\r\n\tuint256[32] public lastThreads;\r\n\t// Keeping track of index of the thread that was added last in lastThreads\r\n\tuint256 public indexLastThreads = 0;\r\n\r\n\t//\r\n\t// Events\r\n\t//\r\n\r\n\tevent newThreadEvent(uint256 threadId, string text, string ipfsHash, uint256 timestamp);\r\n\tevent newReplyEvent(uint256 replyId, uint256 replyTo, string text, string ipfsHash, uint256 timestamp);\r\n\r\n\t//\r\n\t// Modifiers\r\n\t//\r\n\r\n/// @dev Create a modifer that checks if the msg.sender is the owner of the contract\r\n\t  modifier onlyOwner() {\r\n\t    require (msg.sender == owner);\r\n\t    _;\r\n\t  }\r\n\r\n/// @dev Create a modifer that checks if the msg.value is greater than the fee required to create thread\r\n\t\tmodifier payFeeNewThread() {\r\n\t\t\trequire(msg.value >= feeNewThread);\r\n\t\t\t_;\r\n\t\t}\r\n/// @dev Create a modifer that checks if the msg.value is greater than the fee required to reply\r\n\t\tmodifier payFeeReplyThread() {\r\n\t\t\trequire(msg.value >= feeReplyThread);\r\n\t\t\t_;\r\n\t\t}\r\n\r\n/// @dev Create a modifer that checks if the contract is paused\r\n\t\tmodifier isHalted() {\r\n\t\t\trequire(isPaused == false);\r\n\t\t\t_;\r\n\t\t}\r\n\r\n\t//\r\n\t// Constructor\r\n\t//\r\n\r\n/// @dev Set initial fee while deploying the contract\r\n/// @param _feeNewThread Fee required to create new thread (uint256)\r\n/// @param _feeReplyThread Fee required for replying to a thread (uint256)\r\n\tconstructor(uint256 _feeNewThread, uint256 _feeReplyThread) public {\r\n\t\towner = msg.sender;\r\n\t\tfeeNewThread = _feeNewThread;\r\n\t\tfeeReplyThread = _feeReplyThread;\r\n\t}\r\n\r\n/// @notice Owner can pause the contract\r\n/// @dev Owner can call this function to toggle contract isPaused state\r\n\tfunction toggleContractActive()\r\n\tonlyOwner\r\n\tpublic\r\n\treturns(bool)\r\n\t{\r\n\t    isPaused = !isPaused;\r\n\t\t\treturn isPaused;\r\n\t}\r\n\r\n\t/// @notice Owner can kill the contract\r\n\t/// @dev Owner can call this function to invoke self destruction and transfer the balance\r\n\tfunction isKill() public onlyOwner{\r\n      selfdestruct(owner);\r\n\t}\r\n\r\n/// @notice Owner can reset fee in the future\r\n/// @dev Sets feeNewThread and feeReplyThread\r\n/// @param _feeNewThread Fee required to create new thread (uint256)\r\n/// @param  _feeReplyThread Fee required for replying to a thread (uint256)\r\n\tfunction setFees(uint256 _feeNewThread, uint256 _feeReplyThread) public onlyOwner {\r\n\t\tfeeNewThread = _feeNewThread;\r\n\t\tfeeReplyThread = _feeReplyThread;\r\n\t}\r\n\r\n\t// To get the money back\r\n/// @notice Owner can withdraw fee from contract\r\n/// @dev Transfers all ether in contract to owner\r\n/// @param _amount Amount to withdraw from contract (uint256)\r\n\tfunction withdraw(uint256 _amount)\r\n\tpublic\r\n\tonlyOwner\r\n\tisHalted\r\n\t{\r\n\t\towner.transfer(_amount);\r\n\t}\r\n\r\n\t// Create a Thread\r\n/// @notice Create a new thread if the fees is paid\r\n/// @dev Creates a new thread, updates last active thread index\r\n/// @param _text Text content for the thread post (string)\r\n/// @param _ipfsHash IPFS hash of image (string)\r\n\tfunction createThread(string _text, string _ipfsHash)\r\n\tpayable\r\n\tpublic\r\n\tpayFeeNewThread\r\n\tisHalted {\r\n\t\t// Calculate a new thread ID and post\r\n\t\tthreads[indexThreads] = thread(_text, _ipfsHash, 0, 0, now);\r\n\t\t// Add it to our last active threads array\r\n\t\tlastThreads[indexLastThreads] = indexThreads;\r\n\t\t// Increment index\r\n\t\tindexLastThreads = addmod(indexLastThreads, 1, 32);\r\n\t\t// Fire Event log\r\n\t\temit newThreadEvent(indexThreads, _text, _ipfsHash, now);\r\n\t\t// Increment index for next thread\r\n\t\tindexThreads += 1;\r\n\t}\r\n\r\n\t// Reply to a thread\r\n/// @notice Reply to a thread if the fees is paid\r\n/// @dev Replies to a thread after making sure it exists, updates last active thread index\r\n/// @param _replyTo Index of the thread associated with this reply\r\n/// @param _text Text content for the thread post (string), _ipfsHash IPFS hash of image (string)\r\n\tfunction replyThread(uint256 _replyTo, string _text, string _ipfsHash)\r\n\tpayable\r\n\tpublic\r\n\tpayFeeReplyThread\r\n\tisHalted {\r\n\t\t// Make sure you can't reply to an nonexistant thread\r\n\t\trequire(_replyTo < indexThreads && _replyTo > 0);\r\n\t\t// Post the reply with nextReply = 0 as this is the last message in the chain\r\n\t\treplies[indexReplies] = reply(_text, _ipfsHash, _replyTo, 0, now);\r\n\t\t// Update the thread\r\n\t\t// We're first to reply\r\n\t\tif(threads[_replyTo].indexFirstReply == 0){\r\n\t\t\tthreads[_replyTo].indexFirstReply = indexReplies;\r\n\t\t\tthreads[_replyTo].indexLastReply = indexReplies;\r\n\t\t}\r\n\t\t// We're not first to reply so we update the previous reply as well\r\n\t\telse {\r\n\t\t\treplies[threads[_replyTo].indexLastReply].nextReply = indexReplies;\r\n\t\t\tthreads[_replyTo].indexLastReply = indexReplies;\r\n\t\t}\r\n\r\n\t\t// Update the last active threads\r\n\t\tfor (uint8 i = 0; i < 32; i++) {\r\n\t\t\tif(lastThreads[i] == _replyTo) {\r\n\t\t\t\t// Already in the list\r\n\t\t\t\tbreak;\r\n\t\t\t}\r\n\t\t\tif(i == 31) {\r\n\t\t\t\tlastThreads[indexLastThreads] = _replyTo;\r\n\t\t\t\tindexLastThreads = addmod(indexLastThreads, 1, 32);\r\n\t\t\t}\r\n\t\t}\r\n\t\t// Fire Event log\r\n\t\temit newReplyEvent(indexReplies, _replyTo, _text, _ipfsHash, now);\r\n\t\t// Increment index for next reply\r\n\t\tindexReplies += 1;\r\n\t}\r\n}\r\n",
  "sourcePath": "C:\\Solidity\\Consensys\\FinalProject\\ChanChain\\contracts\\ChanChain.sol",
  "compiler": {
    "name": "solc",
    "version": "0.4.24+commit.e67f0147.Emscripten.clang"
  },
  "schemaVersion": "2.0.1",
  "updatedAt": "2018-08-26T20:28:24.685Z"
}