{
  "contractName": "LibraryDemo",
  "abi": [
    {
      "constant": true,
      "inputs": [
        {
          "name": "a",
          "type": "uint256"
        },
        {
          "name": "b",
          "type": "uint256"
        }
      ],
      "name": "thatAdd",
      "outputs": [
        {
          "name": "",
          "type": "uint256"
        }
      ],
      "payable": false,
      "stateMutability": "pure",
      "type": "function"
    },
    {
      "constant": true,
      "inputs": [
        {
          "name": "a",
          "type": "uint256"
        },
        {
          "name": "b",
          "type": "uint256"
        }
      ],
      "name": "thisAdd",
      "outputs": [
        {
          "name": "",
          "type": "uint256"
        }
      ],
      "payable": false,
      "stateMutability": "pure",
      "type": "function"
    }
  ],
  "bytecode": "0x608060405234801561001057600080fd5b506101d8806100206000396000f30060806040526004361061004c576000357c0100000000000000000000000000000000000000000000000000000000900463ffffffff168063aa4a75d314610051578063fb9d85671461009c575b600080fd5b34801561005d57600080fd5b5061008660048036038101908080359060200190929190803590602001909291905050506100e7565b6040518082815260200191505060405180910390f35b3480156100a857600080fd5b506100d1600480360381019080803590602001909291908035906020019092919050505061019f565b6040518082815260200191505060405180910390f35b600073__ExampleLibrary________________________63771602f784846040518363ffffffff167c0100000000000000000000000000000000000000000000000000000000028152600401808381526020018281526020019250505060206040518083038186803b15801561015c57600080fd5b505af4158015610170573d6000803e3d6000fd5b505050506040513d602081101561018657600080fd5b8101908080519060200190929190505050905092915050565b60008183019050929150505600a165627a7a723058205c9492e84c8cb381cf1c0613d9779f303f7af55c69ac948eca69d9d64b73924b0029",
  "source": "pragma solidity 0.4.24;\r\n\r\nimport \"./ExampleLibrary.sol\";\r\n\r\ncontract LibraryDemo {\r\n    function thatAdd(uint256 a, uint256 b) public pure returns (uint256) {\r\n        return ExampleLibrary.add(a, b);\r\n    }\r\n\r\n    function thisAdd(uint256 a, uint256 b) public pure returns (uint256) {\r\n        return a + b;\r\n    }\r\n}\r\n",
  "sourcePath": "C:\\Solidity\\Consensys\\FinalProject\\ChanChain\\contracts\\LibraryDemo.sol",
  "compiler": {
    "name": "solc",
    "version": "0.4.24+commit.e67f0147.Emscripten.clang"
  },
  "schemaVersion": "2.0.1",
  "updatedAt": "2018-08-24T00:30:47.305Z"
}